{
  "_format": "hh-sol-artifact-1",
  "contractName": "SimpleNFT",
  "sourceName": "contracts/SimpleNFT.sol",
  "abi": [
    {
      "inputs": [],
      "stateMutability": "nonpayable",
      "type": "constructor"
    },
    {
      "anonymous": false,
      "inputs": [
        {
          "indexed": true,
          "internalType": "address",
          "name": "owner",
          "type": "address"
        },
        {
          "indexed": true,
          "internalType": "address",
          "name": "approved",
          "type": "address"
        },
        {
          "indexed": true,
          "internalType": "uint256",
          "name": "tokenId",
          "type": "uint256"
        }
      ],
      "name": "Approval",
      "type": "event"
    },
    {
      "anonymous": false,
      "inputs": [
        {
          "indexed": true,
          "internalType": "address",
          "name": "owner",
          "type": "address"
        },
        {
          "indexed": true,
          "internalType": "address",
          "name": "operator",
          "type": "address"
        },
        {
          "indexed": false,
          "internalType": "bool",
          "name": "approved",
          "type": "bool"
        }
      ],
      "name": "ApprovalForAll",
      "type": "event"
    },
    {
      "anonymous": false,
      "inputs": [
        {
          "indexed": true,
          "internalType": "address",
          "name": "from",
          "type": "address"
        },
        {
          "indexed": true,
          "internalType": "address",
          "name": "to",
          "type": "address"
        },
        {
          "indexed": true,
          "internalType": "uint256",
          "name": "tokenId",
          "type": "uint256"
        }
      ],
      "name": "Transfer",
      "type": "event"
    },
    {
      "inputs": [
        {
          "internalType": "address",
          "name": "to",
          "type": "address"
        },
        {
          "internalType": "uint256",
          "name": "tokenId",
          "type": "uint256"
        }
      ],
      "name": "approve",
      "outputs": [],
      "stateMutability": "nonpayable",
      "type": "function"
    },
    {
      "inputs": [
        {
          "internalType": "address",
          "name": "owner",
          "type": "address"
        }
      ],
      "name": "balanceOf",
      "outputs": [
        {
          "internalType": "uint256",
          "name": "",
          "type": "uint256"
        }
      ],
      "stateMutability": "view",
      "type": "function"
    },
    {
      "inputs": [],
      "name": "baseURI",
      "outputs": [
        {
          "internalType": "string",
          "name": "",
          "type": "string"
        }
      ],
      "stateMutability": "view",
      "type": "function"
    },
    {
      "inputs": [
        {
          "internalType": "string",
          "name": "tokenURI",
          "type": "string"
        }
      ],
      "name": "createNFT",
      "outputs": [
        {
          "internalType": "uint256",
          "name": "",
          "type": "uint256"
        }
      ],
      "stateMutability": "nonpayable",
      "type": "function"
    },
    {
      "inputs": [],
      "name": "get",
      "outputs": [
        {
          "internalType": "uint256",
          "name": "",
          "type": "uint256"
        }
      ],
      "stateMutability": "view",
      "type": "function"
    },
    {
      "inputs": [
        {
          "internalType": "uint256",
          "name": "tokenId",
          "type": "uint256"
        }
      ],
      "name": "getApproved",
      "outputs": [
        {
          "internalType": "address",
          "name": "",
          "type": "address"
        }
      ],
      "stateMutability": "view",
      "type": "function"
    },
    {
      "inputs": [
        {
          "internalType": "address",
          "name": "owner",
          "type": "address"
        },
        {
          "internalType": "address",
          "name": "operator",
          "type": "address"
        }
      ],
      "name": "isApprovedForAll",
      "outputs": [
        {
          "internalType": "bool",
          "name": "",
          "type": "bool"
        }
      ],
      "stateMutability": "view",
      "type": "function"
    },
    {
      "inputs": [],
      "name": "name",
      "outputs": [
        {
          "internalType": "string",
          "name": "",
          "type": "string"
        }
      ],
      "stateMutability": "view",
      "type": "function"
    },
    {
      "inputs": [
        {
          "internalType": "uint256",
          "name": "tokenId",
          "type": "uint256"
        }
      ],
      "name": "ownerOf",
      "outputs": [
        {
          "internalType": "address",
          "name": "",
          "type": "address"
        }
      ],
      "stateMutability": "view",
      "type": "function"
    },
    {
      "inputs": [
        {
          "internalType": "address",
          "name": "from",
          "type": "address"
        },
        {
          "internalType": "address",
          "name": "to",
          "type": "address"
        },
        {
          "internalType": "uint256",
          "name": "tokenId",
          "type": "uint256"
        }
      ],
      "name": "safeTransferFrom",
      "outputs": [],
      "stateMutability": "nonpayable",
      "type": "function"
    },
    {
      "inputs": [
        {
          "internalType": "address",
          "name": "from",
          "type": "address"
        },
        {
          "internalType": "address",
          "name": "to",
          "type": "address"
        },
        {
          "internalType": "uint256",
          "name": "tokenId",
          "type": "uint256"
        },
        {
          "internalType": "bytes",
          "name": "_data",
          "type": "bytes"
        }
      ],
      "name": "safeTransferFrom",
      "outputs": [],
      "stateMutability": "nonpayable",
      "type": "function"
    },
    {
      "inputs": [
        {
          "internalType": "uint256",
          "name": "x",
          "type": "uint256"
        }
      ],
      "name": "set",
      "outputs": [],
      "stateMutability": "nonpayable",
      "type": "function"
    },
    {
      "inputs": [
        {
          "internalType": "address",
          "name": "operator",
          "type": "address"
        },
        {
          "internalType": "bool",
          "name": "approved",
          "type": "bool"
        }
      ],
      "name": "setApprovalForAll",
      "outputs": [],
      "stateMutability": "nonpayable",
      "type": "function"
    },
    {
      "inputs": [
        {
          "internalType": "bytes4",
          "name": "interfaceId",
          "type": "bytes4"
        }
      ],
      "name": "supportsInterface",
      "outputs": [
        {
          "internalType": "bool",
          "name": "",
          "type": "bool"
        }
      ],
      "stateMutability": "view",
      "type": "function"
    },
    {
      "inputs": [],
      "name": "symbol",
      "outputs": [
        {
          "internalType": "string",
          "name": "",
          "type": "string"
        }
      ],
      "stateMutability": "view",
      "type": "function"
    },
    {
      "inputs": [
        {
          "internalType": "uint256",
          "name": "index",
          "type": "uint256"
        }
      ],
      "name": "tokenByIndex",
      "outputs": [
        {
          "internalType": "uint256",
          "name": "",
          "type": "uint256"
        }
      ],
      "stateMutability": "view",
      "type": "function"
    },
    {
      "inputs": [
        {
          "internalType": "address",
          "name": "owner",
          "type": "address"
        },
        {
          "internalType": "uint256",
          "name": "index",
          "type": "uint256"
        }
      ],
      "name": "tokenOfOwnerByIndex",
      "outputs": [
        {
          "internalType": "uint256",
          "name": "",
          "type": "uint256"
        }
      ],
      "stateMutability": "view",
      "type": "function"
    },
    {
      "inputs": [
        {
          "internalType": "uint256",
          "name": "tokenId",
          "type": "uint256"
        }
      ],
      "name": "tokenURI",
      "outputs": [
        {
          "internalType": "string",
          "name": "",
          "type": "string"
        }
      ],
      "stateMutability": "view",
      "type": "function"
    },
    {
      "inputs": [],
      "name": "totalSupply",
      "outputs": [
        {
          "internalType": "uint256",
          "name": "",
          "type": "uint256"
        }
      ],
      "stateMutability": "view",
      "type": "function"
    },
    {
      "inputs": [
        {
          "internalType": "address",
          "name": "from",
          "type": "address"
        },
        {
          "internalType": "address",
          "name": "to",
          "type": "address"
        },
        {
          "internalType": "uint256",
          "name": "tokenId",
          "type": "uint256"
        }
      ],
      "name": "transferFrom",
      "outputs": [],
      "stateMutability": "nonpayable",
      "type": "function"
    }
  ],
  "bytecode": "0x60806040523480156200001157600080fd5b506040518060400160405280600b81526020017f4e6f6e46756e6769626c650000000000000000000000000000000000000000008152506040518060400160405280600381526020017f4e46540000000000000000000000000000000000000000000000000000000000815250620000966301ffc9a760e01b6200012060201b60201c565b8160069080519060200190620000ae92919062000229565b508060079080519060200190620000c792919062000229565b50620000e06380ac58cd60e01b6200012060201b60201c565b620000f8635b5e139f60e01b6200012060201b60201c565b6200011063780e9d6360e01b6200012060201b60201c565b50506000600a81905550620002cf565b63ffffffff60e01b817bffffffffffffffffffffffffffffffffffffffffffffffffffffffff19161415620001bd576040517f08c379a000000000000000000000000000000000000000000000000000000000815260040180806020018281038252601c8152602001807f4552433136353a20696e76616c696420696e746572666163652069640000000081525060200191505060405180910390fd5b6001600080837bffffffffffffffffffffffffffffffffffffffffffffffffffffffff19167bffffffffffffffffffffffffffffffffffffffffffffffffffffffff1916815260200190815260200160002060006101000a81548160ff02191690831515021790555050565b828054600181600116156101000203166002900490600052602060002090601f016020900481019282601f106200026c57805160ff19168380011785556200029d565b828001600101855582156200029d579182015b828111156200029c5782518255916020019190600101906200027f565b5b509050620002ac9190620002b0565b5090565b5b80821115620002cb576000816000905550600101620002b1565b5090565b612c7980620002df6000396000f3fe608060405234801561001057600080fd5b506004361061012c5760003560e01c80636352211e116100ad578063a22cb46511610071578063a22cb4651461065d578063b88d4fde146106ad578063c87b56dd146107b2578063da2ed03e14610859578063e985e9c5146109285761012c565b80636352211e146104895780636c0360eb146104e15780636d4ce63c1461056457806370a082311461058257806395d89b41146105da5761012c565b806323b872dd116100f457806323b872dd146102db5780632f745c591461034957806342842e0e146103ab5780634f6ccce71461041957806360fe47b11461045b5761012c565b806301ffc9a71461013157806306fdde0314610194578063081812fc14610217578063095ea7b31461026f57806318160ddd146102bd575b600080fd5b61017c6004803603602081101561014757600080fd5b8101908080357bffffffffffffffffffffffffffffffffffffffffffffffffffffffff191690602001909291905050506109a2565b60405180821515815260200191505060405180910390f35b61019c610a09565b6040518080602001828103825283818151815260200191508051906020019080838360005b838110156101dc5780820151818401526020810190506101c1565b50505050905090810190601f1680156102095780820380516001836020036101000a031916815260200191505b509250505060405180910390f35b6102436004803603602081101561022d57600080fd5b8101908080359060200190929190505050610aab565b604051808273ffffffffffffffffffffffffffffffffffffffff16815260200191505060405180910390f35b6102bb6004803603604081101561028557600080fd5b81019080803573ffffffffffffffffffffffffffffffffffffffff16906020019092919080359060200190929190505050610b46565b005b6102c5610c8a565b6040518082815260200191505060405180910390f35b610347600480360360608110156102f157600080fd5b81019080803573ffffffffffffffffffffffffffffffffffffffff169060200190929190803573ffffffffffffffffffffffffffffffffffffffff16906020019092919080359060200190929190505050610c9b565b005b6103956004803603604081101561035f57600080fd5b81019080803573ffffffffffffffffffffffffffffffffffffffff16906020019092919080359060200190929190505050610d11565b6040518082815260200191505060405180910390f35b610417600480360360608110156103c157600080fd5b81019080803573ffffffffffffffffffffffffffffffffffffffff169060200190929190803573ffffffffffffffffffffffffffffffffffffffff16906020019092919080359060200190929190505050610d6c565b005b6104456004803603602081101561042f57600080fd5b8101908080359060200190929190505050610d8c565b6040518082815260200191505060405180910390f35b6104876004803603602081101561047157600080fd5b8101908080359060200190929190505050610daf565b005b6104b56004803603602081101561049f57600080fd5b8101908080359060200190929190505050610db9565b604051808273ffffffffffffffffffffffffffffffffffffffff16815260200191505060405180910390f35b6104e9610df0565b6040518080602001828103825283818151815260200191508051906020019080838360005b8381101561052957808201518184015260208101905061050e565b50505050905090810190601f1680156105565780820380516001836020036101000a031916815260200191505b509250505060405180910390f35b61056c610e92565b6040518082815260200191505060405180910390f35b6105c46004803603602081101561059857600080fd5b81019080803573ffffffffffffffffffffffffffffffffffffffff169060200190929190505050610e9c565b6040518082815260200191505060405180910390f35b6105e2610f71565b6040518080602001828103825283818151815260200191508051906020019080838360005b83811015610622578082015181840152602081019050610607565b50505050905090810190601f16801561064f5780820380516001836020036101000a031916815260200191505b509250505060405180910390f35b6106ab6004803603604081101561067357600080fd5b81019080803573ffffffffffffffffffffffffffffffffffffffff169060200190929190803515159060200190929190505050611013565b005b6107b0600480360360808110156106c357600080fd5b81019080803573ffffffffffffffffffffffffffffffffffffffff169060200190929190803573ffffffffffffffffffffffffffffffffffffffff169060200190929190803590602001909291908035906020019064010000000081111561072a57600080fd5b82018360208201111561073c57600080fd5b8035906020019184600183028401116401000000008311171561075e57600080fd5b91908080601f016020809104026020016040519081016040528093929190818152602001838380828437600081840152601f19601f8201169050808301925050505050505091929192905050506111c9565b005b6107de600480360360208110156107c857600080fd5b8101908080359060200190929190505050611241565b6040518080602001828103825283818151815260200191508051906020019080838360005b8381101561081e578082015181840152602081019050610803565b50505050905090810190601f16801561084b5780820380516001836020036101000a031916815260200191505b509250505060405180910390f35b6109126004803603602081101561086f57600080fd5b810190808035906020019064010000000081111561088c57600080fd5b82018360208201111561089e57600080fd5b803590602001918460018302840111640100000000831117156108c057600080fd5b91908080601f016020809104026020016040519081016040528093929190818152602001838380828437600081840152601f19601f820116905080830192505050505050509192919290505050611512565b6040518082815260200191505060405180910390f35b61098a6004803603604081101561093e57600080fd5b81019080803573ffffffffffffffffffffffffffffffffffffffff169060200190929190803573ffffffffffffffffffffffffffffffffffffffff169060200190929190505050611540565b60405180821515815260200191505060405180910390f35b6000806000837bffffffffffffffffffffffffffffffffffffffffffffffffffffffff19167bffffffffffffffffffffffffffffffffffffffffffffffffffffffff1916815260200190815260200160002060009054906101000a900460ff169050919050565b606060068054600181600116156101000203166002900480601f016020809104026020016040519081016040528092919081815260200182805460018160011615610100020316600290048015610aa15780601f10610a7657610100808354040283529160200191610aa1565b820191906000526020600020905b815481529060010190602001808311610a8457829003601f168201915b5050505050905090565b6000610ab6826115d4565b610b0b576040517f08c379a000000000000000000000000000000000000000000000000000000000815260040180806020018281038252602c815260200180612b42602c913960400191505060405180910390fd5b6004600083815260200190815260200160002060009054906101000a900473ffffffffffffffffffffffffffffffffffffffff169050919050565b6000610b5182610db9565b90508073ffffffffffffffffffffffffffffffffffffffff168373ffffffffffffffffffffffffffffffffffffffff161415610bd8576040517f08c379a0000000000000000000000000000000000000000000000000000000008152600401808060200182810382526021815260200180612bf26021913960400191505060405180910390fd5b8073ffffffffffffffffffffffffffffffffffffffff16610bf76115f1565b73ffffffffffffffffffffffffffffffffffffffff161480610c265750610c2581610c206115f1565b611540565b5b610c7b576040517f08c379a0000000000000000000000000000000000000000000000000000000008152600401808060200182810382526038815260200180612a956038913960400191505060405180910390fd5b610c8583836115f9565b505050565b6000610c9660026116b2565b905090565b610cac610ca66115f1565b826116c7565b610d01576040517f08c379a0000000000000000000000000000000000000000000000000000000008152600401808060200182810382526031815260200180612c136031913960400191505060405180910390fd5b610d0c8383836117bb565b505050565b6000610d6482600160008673ffffffffffffffffffffffffffffffffffffffff1673ffffffffffffffffffffffffffffffffffffffff1681526020019081526020016000206119fe90919063ffffffff16565b905092915050565b610d87838383604051806020016040528060008152506111c9565b505050565b600080610da3836002611a1890919063ffffffff16565b50905080915050919050565b80600b8190555050565b6000610de982604051806060016040528060298152602001612af7602991396002611a449092919063ffffffff16565b9050919050565b606060098054600181600116156101000203166002900480601f016020809104026020016040519081016040528092919081815260200182805460018160011615610100020316600290048015610e885780601f10610e5d57610100808354040283529160200191610e88565b820191906000526020600020905b815481529060010190602001808311610e6b57829003601f168201915b5050505050905090565b6000600b54905090565b60008073ffffffffffffffffffffffffffffffffffffffff168273ffffffffffffffffffffffffffffffffffffffff161415610f23576040517f08c379a000000000000000000000000000000000000000000000000000000000815260040180806020018281038252602a815260200180612acd602a913960400191505060405180910390fd5b610f6a600160008473ffffffffffffffffffffffffffffffffffffffff1673ffffffffffffffffffffffffffffffffffffffff168152602001908152602001600020611a63565b9050919050565b606060078054600181600116156101000203166002900480601f0160208091040260200160405190810160405280929190818152602001828054600181600116156101000203166002900480156110095780601f10610fde57610100808354040283529160200191611009565b820191906000526020600020905b815481529060010190602001808311610fec57829003601f168201915b5050505050905090565b61101b6115f1565b73ffffffffffffffffffffffffffffffffffffffff168273ffffffffffffffffffffffffffffffffffffffff1614156110bc576040517f08c379a00000000000000000000000000000000000000000000000000000000081526004018080602001828103825260198152602001807f4552433732313a20617070726f766520746f2063616c6c65720000000000000081525060200191505060405180910390fd5b80600560006110c96115f1565b73ffffffffffffffffffffffffffffffffffffffff1673ffffffffffffffffffffffffffffffffffffffff16815260200190815260200160002060008473ffffffffffffffffffffffffffffffffffffffff1673ffffffffffffffffffffffffffffffffffffffff16815260200190815260200160002060006101000a81548160ff0219169083151502179055508173ffffffffffffffffffffffffffffffffffffffff166111766115f1565b73ffffffffffffffffffffffffffffffffffffffff167f17307eab39ab6107e8899845ad3d59bd9653f200f220920489ca2b5937696c318360405180821515815260200191505060405180910390a35050565b6111da6111d46115f1565b836116c7565b61122f576040517f08c379a0000000000000000000000000000000000000000000000000000000008152600401808060200182810382526031815260200180612c136031913960400191505060405180910390fd5b61123b84848484611a78565b50505050565b606061124c826115d4565b6112a1576040517f08c379a000000000000000000000000000000000000000000000000000000000815260040180806020018281038252602f815260200180612bc3602f913960400191505060405180910390fd5b6060600860008481526020019081526020016000208054600181600116156101000203166002900480601f01602080910402602001604051908101604052809291908181526020018280546001816001161561010002031660029004801561134a5780601f1061131f5761010080835404028352916020019161134a565b820191906000526020600020905b81548152906001019060200180831161132d57829003601f168201915b50505050509050606061135b610df0565b905060008151141561137157819250505061150d565b6000825111156114425780826040516020018083805190602001908083835b602083106113b35780518252602082019150602081019050602083039250611390565b6001836020036101000a03801982511681845116808217855250505050505090500182805190602001908083835b6020831061140457805182526020820191506020810190506020830392506113e1565b6001836020036101000a038019825116818451168082178552505050505050905001925050506040516020818303038152906040529250505061150d565b8061144c85611aea565b6040516020018083805190602001908083835b60208310611482578051825260208201915060208101905060208303925061145f565b6001836020036101000a03801982511681845116808217855250505050505090500182805190602001908083835b602083106114d357805182526020820191506020810190506020830392506114b0565b6001836020036101000a03801982511681845116808217855250505050505090500192505050604051602081830303815290604052925050505b919050565b600080600a5490506115243382611c31565b61152e8184611c4f565b6001600a5401600a8190555050919050565b6000600560008473ffffffffffffffffffffffffffffffffffffffff1673ffffffffffffffffffffffffffffffffffffffff16815260200190815260200160002060008373ffffffffffffffffffffffffffffffffffffffff1673ffffffffffffffffffffffffffffffffffffffff16815260200190815260200160002060009054906101000a900460ff16905092915050565b60006115ea826002611cd990919063ffffffff16565b9050919050565b600033905090565b816004600083815260200190815260200160002060006101000a81548173ffffffffffffffffffffffffffffffffffffffff021916908373ffffffffffffffffffffffffffffffffffffffff160217905550808273ffffffffffffffffffffffffffffffffffffffff1661166c83610db9565b73ffffffffffffffffffffffffffffffffffffffff167f8c5be1e5ebec7d5bd14f71427d1e84f3dd0314c0f7b2291e5b200ac8c7c3b92560405160405180910390a45050565b60006116c082600001611cf3565b9050919050565b60006116d2826115d4565b611727576040517f08c379a000000000000000000000000000000000000000000000000000000000815260040180806020018281038252602c815260200180612a69602c913960400191505060405180910390fd5b600061173283610db9565b90508073ffffffffffffffffffffffffffffffffffffffff168473ffffffffffffffffffffffffffffffffffffffff1614806117a157508373ffffffffffffffffffffffffffffffffffffffff1661178984610aab565b73ffffffffffffffffffffffffffffffffffffffff16145b806117b257506117b18185611540565b5b91505092915050565b8273ffffffffffffffffffffffffffffffffffffffff166117db82610db9565b73ffffffffffffffffffffffffffffffffffffffff1614611847576040517f08c379a0000000000000000000000000000000000000000000000000000000008152600401808060200182810382526029815260200180612b9a6029913960400191505060405180910390fd5b600073ffffffffffffffffffffffffffffffffffffffff168273ffffffffffffffffffffffffffffffffffffffff1614156118cd576040517f08c379a0000000000000000000000000000000000000000000000000000000008152600401808060200182810382526024815260200180612a1f6024913960400191505060405180910390fd5b6118d8838383611d04565b6118e36000826115f9565b61193481600160008673ffffffffffffffffffffffffffffffffffffffff1673ffffffffffffffffffffffffffffffffffffffff168152602001908152602001600020611d0990919063ffffffff16565b5061198681600160008573ffffffffffffffffffffffffffffffffffffffff1673ffffffffffffffffffffffffffffffffffffffff168152602001908152602001600020611d2390919063ffffffff16565b5061199d81836002611d3d9092919063ffffffff16565b50808273ffffffffffffffffffffffffffffffffffffffff168473ffffffffffffffffffffffffffffffffffffffff167fddf252ad1be2c89b69c2b068fc378daa952ba7f163c4a11628f55a4df523b3ef60405160405180910390a4505050565b6000611a0d8360000183611d72565b60001c905092915050565b600080600080611a2b8660000186611df5565b915091508160001c8160001c9350935050509250929050565b6000611a57846000018460001b84611e8e565b60001c90509392505050565b6000611a7182600001611f84565b9050919050565b611a838484846117bb565b611a8f84848484611f95565b611ae4576040517f08c379a00000000000000000000000000000000000000000000000000000000081526004018080602001828103825260328152602001806129ed6032913960400191505060405180910390fd5b50505050565b60606000821415611b32576040518060400160405280600181526020017f30000000000000000000000000000000000000000000000000000000000000008152509050611c2c565b600082905060005b60008214611b5c578080600101915050600a8281611b5457fe5b049150611b3a565b60608167ffffffffffffffff81118015611b7557600080fd5b506040519080825280601f01601f191660200182016040528015611ba85781602001600182028036833780820191505090505b50905060006001830390508593505b60008414611c2457600a8481611bc957fe5b0660300160f81b82828060019003935081518110611be357fe5b60200101907effffffffffffffffffffffffffffffffffffffffffffffffffffffffffffff1916908160001a905350600a8481611c1c57fe5b049350611bb7565b819450505050505b919050565b611c4b8282604051806020016040528060008152506121ae565b5050565b611c58826115d4565b611cad576040517f08c379a000000000000000000000000000000000000000000000000000000000815260040180806020018281038252602c815260200180612b6e602c913960400191505060405180910390fd5b80600860008481526020019081526020016000209080519060200190611cd492919061292d565b505050565b6000611ceb836000018360001b61221f565b905092915050565b600081600001805490509050919050565b505050565b6000611d1b836000018360001b612242565b905092915050565b6000611d35836000018360001b61232a565b905092915050565b6000611d69846000018460001b8473ffffffffffffffffffffffffffffffffffffffff1660001b61239a565b90509392505050565b600081836000018054905011611dd3576040517f08c379a00000000000000000000000000000000000000000000000000000000081526004018080602001828103825260228152602001806129cb6022913960400191505060405180910390fd5b826000018281548110611de257fe5b9060005260206000200154905092915050565b60008082846000018054905011611e57576040517f08c379a0000000000000000000000000000000000000000000000000000000008152600401808060200182810382526022815260200180612b206022913960400191505060405180910390fd5b6000846000018481548110611e6857fe5b906000526020600020906002020190508060000154816001015492509250509250929050565b60008084600101600085815260200190815260200160002054905060008114158390611f55576040517f08c379a00000000000000000000000000000000000000000000000000000000081526004018080602001828103825283818151815260200191508051906020019080838360005b83811015611f1a578082015181840152602081019050611eff565b50505050905090810190601f168015611f475780820380516001836020036101000a031916815260200191505b509250505060405180910390fd5b50846000016001820381548110611f6857fe5b9060005260206000209060020201600101549150509392505050565b600081600001805490509050919050565b6000611fb68473ffffffffffffffffffffffffffffffffffffffff16612476565b611fc357600190506121a6565b606061212d63150b7a0260e01b611fd86115f1565b888787604051602401808573ffffffffffffffffffffffffffffffffffffffff1681526020018473ffffffffffffffffffffffffffffffffffffffff16815260200183815260200180602001828103825283818151815260200191508051906020019080838360005b8381101561205c578082015181840152602081019050612041565b50505050905090810190601f1680156120895780820380516001836020036101000a031916815260200191505b5095505050505050604051602081830303815290604052907bffffffffffffffffffffffffffffffffffffffffffffffffffffffff19166020820180517bffffffffffffffffffffffffffffffffffffffffffffffffffffffff83818316178352505050506040518060600160405280603281526020016129ed603291398773ffffffffffffffffffffffffffffffffffffffff166124899092919063ffffffff16565b9050600081806020019051602081101561214657600080fd5b8101908080519060200190929190505050905063150b7a0260e01b7bffffffffffffffffffffffffffffffffffffffffffffffffffffffff1916817bffffffffffffffffffffffffffffffffffffffffffffffffffffffff191614925050505b949350505050565b6121b883836124a1565b6121c56000848484611f95565b61221a576040517f08c379a00000000000000000000000000000000000000000000000000000000081526004018080602001828103825260328152602001806129ed6032913960400191505060405180910390fd5b505050565b600080836001016000848152602001908152602001600020541415905092915050565b6000808360010160008481526020019081526020016000205490506000811461231e576000600182039050600060018660000180549050039050600086600001828154811061228d57fe5b90600052602060002001549050808760000184815481106122aa57fe5b90600052602060002001819055506001830187600101600083815260200190815260200160002081905550866000018054806122e257fe5b60019003818190600052602060002001600090559055866001016000878152602001908152602001600020600090556001945050505050612324565b60009150505b92915050565b60006123368383612695565b61238f578260000182908060018154018082558091505060019003906000526020600020016000909190919091505582600001805490508360010160008481526020019081526020016000208190555060019050612394565b600090505b92915050565b60008084600101600085815260200190815260200160002054905060008114156124415784600001604051806040016040528086815260200185815250908060018154018082558091505060019003906000526020600020906002020160009091909190915060008201518160000155602082015181600101555050846000018054905085600101600086815260200190815260200160002081905550600191505061246f565b8285600001600183038154811061245457fe5b90600052602060002090600202016001018190555060009150505b9392505050565b600080823b905060008111915050919050565b606061249884846000856126b8565b90509392505050565b600073ffffffffffffffffffffffffffffffffffffffff168273ffffffffffffffffffffffffffffffffffffffff161415612544576040517f08c379a00000000000000000000000000000000000000000000000000000000081526004018080602001828103825260208152602001807f4552433732313a206d696e7420746f20746865207a65726f206164647265737381525060200191505060405180910390fd5b61254d816115d4565b156125c0576040517f08c379a000000000000000000000000000000000000000000000000000000000815260040180806020018281038252601c8152602001807f4552433732313a20746f6b656e20616c7265616479206d696e7465640000000081525060200191505060405180910390fd5b6125cc60008383611d04565b61261d81600160008573ffffffffffffffffffffffffffffffffffffffff1673ffffffffffffffffffffffffffffffffffffffff168152602001908152602001600020611d2390919063ffffffff16565b5061263481836002611d3d9092919063ffffffff16565b50808273ffffffffffffffffffffffffffffffffffffffff16600073ffffffffffffffffffffffffffffffffffffffff167fddf252ad1be2c89b69c2b068fc378daa952ba7f163c4a11628f55a4df523b3ef60405160405180910390a45050565b600080836001016000848152602001908152602001600020541415905092915050565b606082471015612713576040517f08c379a0000000000000000000000000000000000000000000000000000000008152600401808060200182810382526026815260200180612a436026913960400191505060405180910390fd5b61271c85612476565b61278e576040517f08c379a000000000000000000000000000000000000000000000000000000000815260040180806020018281038252601d8152602001807f416464726573733a2063616c6c20746f206e6f6e2d636f6e747261637400000081525060200191505060405180910390fd5b600060608673ffffffffffffffffffffffffffffffffffffffff1685876040518082805190602001908083835b602083106127de57805182526020820191506020810190506020830392506127bb565b6001836020036101000a03801982511681845116808217855250505050505090500191505060006040518083038185875af1925050503d8060008114612840576040519150601f19603f3d011682016040523d82523d6000602084013e612845565b606091505b5091509150612855828286612861565b92505050949350505050565b6060831561287157829050612926565b6000835111156128845782518084602001fd5b816040517f08c379a00000000000000000000000000000000000000000000000000000000081526004018080602001828103825283818151815260200191508051906020019080838360005b838110156128eb5780820151818401526020810190506128d0565b50505050905090810190601f1680156129185780820380516001836020036101000a031916815260200191505b509250505060405180910390fd5b9392505050565b828054600181600116156101000203166002900490600052602060002090601f016020900481019282601f1061296e57805160ff191683800117855561299c565b8280016001018555821561299c579182015b8281111561299b578251825591602001919060010190612980565b5b5090506129a991906129ad565b5090565b5b808211156129c65760008160009055506001016129ae565b509056fe456e756d657261626c655365743a20696e646578206f7574206f6620626f756e64734552433732313a207472616e7366657220746f206e6f6e20455243373231526563656976657220696d706c656d656e7465724552433732313a207472616e7366657220746f20746865207a65726f2061646472657373416464726573733a20696e73756666696369656e742062616c616e636520666f722063616c6c4552433732313a206f70657261746f7220717565727920666f72206e6f6e6578697374656e7420746f6b656e4552433732313a20617070726f76652063616c6c6572206973206e6f74206f776e6572206e6f7220617070726f76656420666f7220616c6c4552433732313a2062616c616e636520717565727920666f7220746865207a65726f20616464726573734552433732313a206f776e657220717565727920666f72206e6f6e6578697374656e7420746f6b656e456e756d657261626c654d61703a20696e646578206f7574206f6620626f756e64734552433732313a20617070726f76656420717565727920666f72206e6f6e6578697374656e7420746f6b656e4552433732314d657461646174613a2055524920736574206f66206e6f6e6578697374656e7420746f6b656e4552433732313a207472616e73666572206f6620746f6b656e2074686174206973206e6f74206f776e4552433732314d657461646174613a2055524920717565727920666f72206e6f6e6578697374656e7420746f6b656e4552433732313a20617070726f76616c20746f2063757272656e74206f776e65724552433732313a207472616e736665722063616c6c6572206973206e6f74206f776e6572206e6f7220617070726f766564a2646970667358221220366ae4dd31f0344da6e8835fd894b42ff86ee3b363a80c5ae184d831f571996664736f6c63430007000033",
  "linkReferences": {},
  "deployedLinkReferences": {}
}